S00D00004E6F6465322E737265635F
S1130000C2C00000E0C00000DEC00000DCC0000090
S1130010DAC00000D8C00000D6C00000D4C0000080
S1130020D2C00000D0C00000CEC00000CCC0000090
S1130030CAC00000C8C00000C6C00000C4C00000A0
S1130040C2C00000C0C00000BEC00000BCC00000B0
S1130050BAC00000B8C00000B6C00000B4C00000C0
S1130060B2C00000B0C00000AEC00000ACC00000D0
S1130070AAC00000A8C00000A6C00000A4C00000E0
S1130080A2C00000A0C000009EC000009CC00000F0
S11300909AC0000098C0000096C00000D2C30000BF
S11300A092C0000090C000008EC000008CC0000010
S11300B08AC0000088C0000086C0000084C0000020
S11300C082C0000080C000007EC000007CC0000030
S11300D07AC0000078C0000076C0000074C0000040
S11300E072C000003F0491049104910491049104AE
S11300F0910491043F0491049104910491049104A6
S11301009104910441049104910491049104910493
S11301109104910491049104910491049104910433
S11301209104910441049104910491049104910473
S11301309104910491049104910491049104910413
S1130140910491048D049104910491049104910407
S1130150910491046A04910491049104910491041A
S113016091049104910491049104910491049104E3
S1130170910491045E049104910491049104910406
S1130180910491047C0411241FBECFEFD1E2DEBFA1
S1130190CDBF00E00CBF12E0A0E0B2E0E0E8F3E184
S11301A000E00BBF02C007900D92A230B107D9F74F
S11301B022E0A2E0B2E001C01D92AF30B207E1F745
S11301C0BBD40C94BE091CCFECE7F0E09081907E88
S11301D090839081282F2F71922B9083EBE7F0E08E
S11301E09081977F90839081829586958770880F00
S11301F0880F880F892B8083089580E480937C0086
S113020088E080937B0080E880937A000895CF9300
S1130210DF931F921F92CDB7DEB7282F277030E0EF
S11302203A83298329813A81869586958870A90124
S1130230482BCA019A83898389819A810897ECF4AF
S113024029813A81EEE7F0E0408181E090E0BC0151
S113025002C0660F771F2A95E2F79B01242B2083A7
S113026049815A8120B302C0880F991F4A95E2F749
S113027080959095822380BB21C049815A81EDE706
S1130280F0E060814850510981E090E09C0102C097
S1130290220F331F4A95E2F7262B208329813A81C6
S11302A0E7E0F1E040812850310902C0880F991F2E
S11302B02A95E2F780959095842380830F900F9080
S11302C0DF91CF91089580DFEAE7F0E080818064D8
S11302D08083808184FFFDCF8091780090917900A4
S11302E0089535D360E88FE05BD360E28AE258D3A7
S11302F062E989E255D362EC88E252D360E08BE292
S11303004FD360E08CE24CD360E08DE249D360E0EF
S11303108CE046D360E08DE043D360E080E640D3D8
S113032060E080E73DD360E080E23AD360E081E2C0
S113033037D360E082E234D360E083E231D364E017
S11303408FE02EC30895CF92DF92EF92FF921F9316
S1130350CF93DF936C0163E080E322D3F6016081E5
S1130360718176956795769567957695679581E31E
S113037017D3F60160816295660F607E82E310D325
S1130380F601628185E30CD3F60182818823A1F012
S11303907601F3E0EF0EF11C16E3C0E0D0E0F701C4
S11303A061917F01812FFCD221961F5FF60182812A
S11303B090E0C817D9079CF340E060E081E01FD3C8
S11303C0DF91CF911F91FF90EF90DF90CF90089530
S11303D0FF920F931F93CF93DF938C012AD380FF57
S11303E03BC081E6C6D228E0829FC0011124F801F7
S11303F09183808382E6BDD2F80120813181829588
S113040086958770282B3183208385E6B2D2F80144
S113041082838281893010F088E08283F8018281AE
S11304208823A1F00F2EF6E6FF2EF02DC0E0D0E0D9
S11304308F2D9FD2F801EC0FFD1F83832196F801C5
S11304408281F39490E0C817D90794F340E061E007
S11304508CE2BCD281E001C080E0DF91CF911F919A
S11304600F91FF900895E2E0F1E080818F7E808318
S11304700895CF93DF93C1E0D1E0888180628883BF
S1130480888188608883888180648883E2E0F1E0E1
S11304908081806280838081877F80838081806483
S11304A0808398D1888180618883888182608883F1
S11304B0DADFDF91CF910895E2E0F1E0808180619D
S11304C080830895CF93DF93CDB7DEB729970FB616
S11304D0F894DEBF0FBECDBF613031F4E2E0F1E04D
S11304E090819260908305C0E2E0F1E090819D7F6D
S11304F0908390E599831A828B8381E08C831D829B
S113050082E08E831F8283E08887198669E0CE01AA
S113051001966AD129960FB6F894DEBF0FBECDBFFF
S1130520DF91CF910895E2E0F1E080818F7B8083B9
S113053085E38A95F1F700008081806480830895C3
S1130540E2E0F1E080818F7D80838081877F8083FA
S11305508AE68A95F1F700C0A6E0B1E08C9190811B
S1130560986090839AE69A95F1F700C02C91908157
S113057090629083082E000C990B982F8827822B69
S11305800895819A89980895899A2FEF81EE94E0CD
S1130590215080409040E1F700C000008998089500
S11305A0CF93DF931F921F92CDB7DEB71A821982C1
S11305B029813A81281739077CF425E02A95F1F737
S11305C0000029813A812F5F3F4F3A832983298193
S11305D03A81281739078CF30F900F90DF91CF9150
S11305E008958F929F92AF92BF92CF92DF92EF9233
S11305F0FF921F93CF93DF93CDB7DEB728970FB643
S1130600F894DEBF0FBECDBF4B015C0169017A01D6
S113061060E271EA87E090E0A50194015ED6298347
S11306203A834B835C83A5019401C701B60111D6BB
S113063028EE33E040E050E050D62D833E834F83D4
S113064058878D819E81AF81B885181619061A06C0
S11306501B064CF58FEF88169806A806B80611F00D
S113066018EC01C010E0C12CD12C76018FEF881654
S11306709806A806B806D9F423C061E0812F22DFCA
S113068089819A81AB81BC818BDF8FEFC81AD80A2C
S1130690E80AF80A8D819E81AF81B885C816D9060B
S11306A0EA06FB061CF361E080E00CDF12C060E0A8
S11306B088EC08DF89819A81AB81BC8171DFDDCF51
S11306C060E080E0FFDE89819A81AB81BC8168DFD4
S11306D0D4CF28960FB6F894DEBF0FBECDBFDF91FE
S11306E0CF911F91FF90EF90DF90CF90BF90AF908C
S11306F09F908F9008958F929F92AF92BF92CF92C6
S1130700DF92EF92FF928130B9F018F0823081F1DC
S113071058C028E730E040E050E068EE73E080E045
S113072090E05FDF28E730E040E050E060E273E013
S113073080E090E056DF45C022E330E040E050E046
S113074060ED77E080E090E04CDF22E330E040E0D1
S113075050E068EB7BE080E090E043DF22E330E0B0
S113076040E050E060EA7FE080E090E03ADF29C0BA
S1130770C12CD12C76010F2EF8E78F2E912CA12CB1
S1130780B12CF02DA7019601C701B60162D59B01DA
S1130790AC01C701B6015DD5A50194017CD5CA01A0
S11307A0B90126E030E040E050E01BDF8FEFC81ACB
S11307B0D80AE80AF80A88E7C816D104E104F10463
S11307C009F7FF90EF90DF90CF90BF90AF909F908C
S11307D08F9008958CE08093B8008FEF8093BB00D6
S11307E084E08093BC000895CF93DF93EC01ECEB9D
S11307F0F0E0908190FDFDCF6093040288818093A6
S1130800050280FD13C0623088F0FE013196A6E037
S1130810B2E06250262F30E02E5F3F4FCE01820FB0
S1130820931F21912D93E817F907D9F7109203022A
S113083088EF8093000285EA8093BC00DF91CF911A
S113084008951F920F920FB60F9211240BB60F92B8
S11308502F933F938F939F93AF93BF93EF93FF9304
S1130860E091B9008E2F90E0FC013897E135F10555
S113087008F057C08827EE58FF4F8F4F4AC5109293
S11308800202E091020280910402E81770F481E010
S11308908E0F80930202F0E0EB5FFD4F8081809326
S11308A0BB0085E88093BC0043C080910302816053
S11308B08093030284E98093BC003AC0E091020271
S11308C081E08E0F809302028091BB00F0E0EB5F29
S11308D0FD4F80832091020230E08091040290E079
S11308E001972817390724F485EC8093BC0020C0B5
S11308F085E88093BC001CC08091BB00E09102029B
S1130900F0E0EB5FFD4F8083809103028160809370
S1130910030284E98093BC000BC085EA8093BC0089
S113092007C08091B9008093000284E08093BC00EA
S1130930FF91EF91BF91AF919F918F913F912F9133
S11309400F900BBE0F900FBE0F901F901895CF9372
S1130950DF931F92CDB7DEB780EC898341E050E08E
S113096060E070E0CE010196CFD00F90DF91CF917F
S11309700895CF93DF9300D0CDB7DEB793E099838A
S11309808A831B8243E050E0BE016F5F7F4FCB013F
S1130990BBD08B810F900F900F90DF91CF91089572
S11309A0CF93DF9300D0CDB7DEB792E099838A83EB
S11309B06B8343E050E060E070E0CE010196A4D088
S11309C00F900F900F90DF91CF910895CF93DF9305
S11309D000D01F92CDB7DEB795E099838A836B83ED
S11309E04C8344E050E060E070E0CE0101968CD08E
S11309F00F900F900F900F90DF91CF910895CF93A8
S1130A00DF931F92CDB7DEB7882311F081E801C0D0
S1130A1080E86111826041118460898341E050E083
S1130A2060E070E0CE0101966FD00F90DF91CF911E
S1130A3008951F93CF93DF9300D0CDB7DEB710EAAC
S1130A4019831A821B8243E050E0BE016F5F7F4F1F
S1130A50CB015AD09A818B819813F2CF892F0F90B2
S1130A600F900F90DF91CF911F91089580E49CE93E
S1130A709093870080938600269A80E29EE4909368
S1130A808B0080938A0082E2809380008AE18093C5
S1130A9081000895843823E0920738F488E097E0D1
S1130AA090938B0080938A000895853328E0920701
S1130AB038F088E690E190938B0080938A00089543
S1130AC0880F991F90938B0080938A000895282F94
S1130AD030E0A0EBB4E025D424E630E040E050E080
S1130AE0DAD3C9018C579C4FD5CF089584B1876858
S1130AF084B92398289A2F9AE4E6F0E080818B7FCA
S1130B0080838DE58CBD08952F981416150694F4F2
S1130B10FC01DB01480F591F91919EBD0DB407FEE6
S1130B20FDCF6115710511F09EB59C931196E417E4
S1130B30F50791F72F9A0895CF93DF93CDB7DEB7DA
S1130B406B970FB6F894DEBF0FBECDBFCFDFC9DB06
S1130B508DDF53DB80E05BDB8CDC13DD789482E398
S1130B60B6DFAADC60E084E6ADDC2FEF33EC49E0CD
S1130B70215030404040E1F700C00000D4DCE12CBB
S1130B80F12C00E010E0DCDC8E159F0511F40F5F02
S1130B901F4FAFEFB9EF20E0A150B0402040E1F784
S1130BA000C000007C010A3011056CF360E080E0B5
S1130BB089DCB9DC188A198A1A8A1B8A412C312CDF
S1130BC0212C1C861D861E861F86188E198E1A8E51
S1130BD01B8EFF24F394142D722CB2DCBC01990FEC
S1130BE0880B990B1FD220E030E04FE753E4CED2BC
S1130BF020E034E447E056EC7FD16C8B7D8B8E8B08
S1130C009F8B9B01AC01688D798D8A8D9B8D0BD157
S1130C10C62E072FE82ED92E262F372F482F592FCF
S1130C206C857D858E859F85FFD06C877D878E87BB
S1130C309F8723E333E343E75FE3688979898A89FC
S1130C409B89A4D24B015C01232D312F422D572DBA
S1130C506C2D702F8E2D9D2DE6D02DEC3CEC4CE4AC
S1130C605DE394D2A5019401DFD0688B798B8A8BE4
S1130C709B8B2EED3DE64EED5BE36C857D858E858D
S1130C809F8584D24B015C012BE437E349E550E4B2
S1130C906C2D702F8E2D9D2D79D29B01AC01C50139
S1130CA0B401C2D04B015C012FE832EC47E052E4BE
S1130CB0688979898A899B8969D29B01AC01C501BC
S1130CC0B401B2D02B013C0120E030E0A90110D1E5
S1130CD0882324F4C301B201905802C0C301B201B5
S1130CE020E030E040EA51E49FD04B015C0120E079
S1130CF030E048E453E446D2181644F40F2E812C15
S1130D00912CF8E4AF2EF3E4BF2EF02D20E030E078
S1130D10A901C301B201ECD0880F880B182F1F2141
S1130D201F25C501B40150D1862F612FCBDBCE0125
S1130D3001964EDB882309F46BC08F81813019F44E
S1130D4080E0D9DC65C0823019F48F2DD4DC60C01A
S1130D50833019F482E0CFDC5BC01D813E802C819E
S1130D60022E000C330B295A3F4F44E6429FC00128
S1130D70439F900D11246FEF70E07AD265367105B0
S1130D8014F064E670E0CB0199230CF480E09FDE5C
S1130D903110FADB612F70E080E090E041D1688F80
S1130DA0798F8A8F9B8F20E030E040EA50E4A0D016
S1130DB08823A4F020E030E04AE753E4688D798D7D
S1130DC08A8D9B8DDFD118168CF480E090E0AAE721
S1130DD0B3E4888F998FAA8FBB8F08C080E090E01E
S1130DE0A0EAB0E4888F998FAA8FBB8FA0E2B1E00C
S1130DF0BA83A983B2E0BB8380E065DA8C836C8913
S1130E007D898E899F89E0D06D83CE0101969BDA1E
S1130E108FE39CE90197F1F700C000003C2C102FF0
S1130E202E2C7D2CDACE5058BB27AA270ED070C1A9
S1130E3061D130F066D120F031F49F3F11F41EF4FB
S1130E4056C10EF4E095E7FB4CC1E92F72D180F353
S1130E50BA17620773078407950718F071F49EF5B3
S1130E608AC10EF4E0950B2EBA2FA02D0B01B90107
S1130E7090010C01CA01A0011124FF27591B99F00C
S1130E80593F50F4503E68F11A16F040A22F232F18
S1130E90342F4427585FF3CF469537952795A79568
S1130EA0F0405395C9F77EF41F16BA0B620B730B0F
S1130EB0840BBAF09150A1F0FF0FBB1F661F771F80
S1130EC0881FC2F70EC0BA0F621F731F841F48F435
S1130ED0879577956795B795F7959E3F08F0B3CFBB
S1130EE09395880F08F09927EE0F979587950895A5
S1130EF0D4D008F481E008950CD00AC102D140F0A6
S1130F00F9D030F021F45F3F19F0EBC0511134C136
S1130F10EEC00FD198F39923C9F35523B1F3951B70
S1130F20550BBB27AA2762177307840738F09F5F06
S1130F305F4F220F331F441FAA1FA9F333D00E2E75
S1130F403AF0E0E830D091505040E695001CCAF7E2
S1130F5029D0FE2F27D0660F771F881FBB1F2617A7
S1130F6037074807AB07B0E809F0BB0B802DBF017A
S1130F70FF2793585F4F2AF09E3F510568F0B1C098
S1130F80FBC05F3FECF3983EDCF38695779567955D
S1130F90B795F7959F5FC9F7880F911D969587952B
S1130FA097F90895E1E0660F771F881FBB1F62174A
S1130FB073078407BA0720F0621B730B840BBA0B08
S1130FC0EE1F88F7E0950895BCD088F09F5790F005
S1130FD0B92F9927B751A0F0D1F0660F771F881F5A
S1130FE0991F1AF0BA95C9F712C0B13081F0C3D075
S1130FF0B1E00895C0C0672F782F8827B85F39F013
S1131000B93FCCF3869577956795B395D9F73EF4B8
S113101090958095709561957F4F8F4F9F4F089560
S1131020E89409C097FB3EF490958095709561957E
S11310307F4F8F4F9F4F9923A9F0F92F96E9BB2734
S11310409395F695879577956795B795F111F8CFB0
S1131050FAF4BB0F11F460FF1BC06F5F7F4F8F4F1B
S11310609F4F16C0882311F096E911C0772321F011
S11310709EE8872F762F05C0662371F096E8862FA9
S113108070E060E02AF09A95660F771F881FDAF700
S1131090880F9695879597F90895990F0008550F2D
S11310A0AA0BE0E8FEEF16161706E807F907C0F0EA
S11310B012161306E407F50798F0621B730B840BF2
S11310C0950B39F40A2661F0232B242B252B21F4CC
S11310D008950A2609F4A140A6958FEF811D811D6C
S11310E0089597F99F6780E870E060E008959FEFA6
S11310F080EC089500240A941616170618060906AB
S1131100089500240A941216130614060506089579
S1131110092E0394000C11F4882352F0BB0F40F401
S1131120BF2B11F460FF04C06F5F7F4F8F4F9F4F41
S1131130089557FD9058440F551F59F05F3F71F0C3
S11311404795880F97FB991F61F09F3F79F087952A
S11311500895121613061406551FF2CF4695F1DFB3
S113116008C0161617061806991FF1CF8695710543
S1131170610508940895E894BB2766277727CB0177
S113118097F908958ADF08F48FEF08950BD0C0CF44
S1131190B1DF28F0B6DF18F0952309F0A2CFA7CF6E
S11311A01124EACFC6DFA0F3959FD1F3950F50E049
S11311B0551F629FF001729FBB27F00DB11D639F05
S11311C0AA27F00DB11DAA1F649F6627B00DA11DAB
S11311D0661F829F2227B00DA11D621F739FB00D51
S11311E0A11D621F839FA00D611D221F749F3327C1
S11311F0A00D611D231F849F600D211D822F762F5A
S11312006A2F11249F5750408AF0E1F088234AF056
S1131210EE0FFF1FBB1F661F771F881F91505040A2
S1131220A9F79E3F510570F05CCFA6CF5F3FECF36A
S1131230983EDCF3869577956795B795F795E7958E
S11312409F5FC1F7FE2B880F911D9695879597F99F
S11312500895DB018F939F9373D0BF91AF91A29FA9
S1131260800D911DA39F900DB29F900D11240895A0
S113127097FB072E16F4009406D077FD08D06AD0A9
S113128007FC05D03EF4909581959F4F0895709585
S113129061957F4F0895A1E21A2EAA1BBB1BFD0185
S11312A00DC0AA1FBB1FEE1FFF1FA217B307E40741
S11312B0F50720F0A21BB30BE40BF50B661F771F99
S11312C0881F991F1A9469F7609570958095909579
S11312D09B01AC01BD01CF010895052E97FB16F4C7
S11312E000940FD057FD05D0D6DF07FC02D046F49A
S11312F008C050954095309521953F4F4F4F5F4F13
S1131300089590958095709561957F4F8F4F9F4F6D
S11313100895EE0FFF1F881F8BBF0790F691E02DF5
S11313201994A29FB001B39FC001A39F700D811DAA
S11313301124911DB29F700D811D1124911D0895DA
S1131340F0DFA59F900DB49F900DA49F800D911D7B
S113135011240895AA1BBB1B51E107C0AA1FBB1F80
S1131360A617B70710F0A61BB70B881F991F5A952D
S1131370A9F780959095BC01CD010895F894FFCF0D
S1051380F8006F
S9030000FC
