S00D00004E6F6465322E737265635F
S113000071C000008EC000008CC000008AC00000D7
S113001088C0000086C0000084C0000082C00000C8
S113002080C000007EC000007CC000007AC00000D8
S113003078C0000076C0000074C0000072C00000E8
S113004070C000006EC000006CC000006AC00000F8
S113005068C0000066C0000064C0000062C0000008
S113006060C000005EC000005CC000005AC0000018
S113007058C0000056C0000054C0000052C0000028
S113008050C000004EC000004CC000004AC0000038
S113009048C0000046C0000044C0000042C0000048
S11300A040C000003EC000003CC000003AC0000058
S11300B038C0000036C0000034C0000032C0000068
S11300C030C000002EC000002CC000002AC0000078
S11300D028C0000026C0000024C0000022C0000088
S11300E020C0000011241FBECFEFD1E2DEBFCDBF80
S11300F000E00CBF12E0A0E0B2E0E6E7F4E000E0CC
S11301000BBF02C007900D92A030B107D9F722E0CF
S1130110A0E0B2E001C01D92A030B207E1F774D1B3
S1130120A8C16ECFBCD060E88FE0E2D060E28AE282
S1130130DFD062E989E2DCD062EC88E2D9D060E009
S11301408BE2D6D060E08CE2D3D060E08DE2D0D0F8
S113015060E08CE0CDD060E08DE0CAD060E080E665
S1130160C7D060E080E7C4D060E080E2C1D060E046
S113017081E2BED060E082E2BBD060E083E2B8D02E
S113018064E08FE0B5C00895CF92DF92EF92FF92C2
S11301901F93CF93DF936C0163E080E3A9D0F60152
S11301A06081718176956795769567957695679563
S11301B081E39ED0F60160816295660F607E82E3E2
S11301C097D0F601628185E393D0F601828188237A
S11301D0A1F07601F3E0EF0EF11C16E3C0E0D0E0ED
S11301E0F70161917F01812F83D021961F5FF60172
S11301F0828190E0C817D9079CF340E060E081E079
S1130200A6D0DF91CF911F91FF90EF90DF90CF9018
S11302100895CF92DF92EF92FF921F93CF93DF93D3
S11302207C01AFD080FF32C081E64BD0F701108251
S1130230818382E646D0F70120813181282B3183E6
S1130240208385E63ED0F7018283893018F088E068
S1130250828302C08823A1F06701F3E0CF0ED11C92
S113026016E6C0E0D0E0812F2CD0F60181936F0117
S113027021961F5FF701828190E0C817D9079CF38C
S113028040E061E08CE24AD081E001C080E0DF918F
S1130290CF911F91FF90EF90DF90CF900895CF936F
S11302A0DF931F92CDB7DEB780EC898341E050E045
S11302B060E070E0CE0101968FD00F90DF91CF9176
S11302C00895CF93DF9300D0CDB7DEB793E0998341
S11302D08A831B8243E050E0BE016F5F7F4FCB01F6
S11302E07BD08B810F900F900F90DF91CF91089569
S11302F0CF93DF9300D0CDB7DEB792E099838A83A2
S11303006B8343E050E060E070E0CE01019664D07E
S11303100F900F900F90DF91CF910895CF93DF93BB
S113032000D01F92CDB7DEB795E099838A836B83A3
S11303304C8344E050E060E070E0CE0101964CD084
S11303400F900F900F900F90DF91CF910895CF935E
S1130350DF931F92CDB7DEB7882311F081E801C087
S113036080E86111826041118460898341E050E03A
S113037060E070E0CE0101962FD00F90DF91CF9115
S113038008951F93CF93DF9300D0CDB7DEB710EA63
S113039019831A821B8243E050E0BE016F5F7F4FD6
S11303A0CB011AD09A818B819813F2CF892F0F90A9
S11303B00F900F90DF91CF911F91089584B18768BA
S11303C084B92398289A2F9AE4E6F0E080818B7F01
S11303D080838DE58CBD08952F981416150694F42A
S11303E0FC01DB01480F591F91919EBD0DB407FE1E
S11303F0FDCF6115710511F09EB59C931196E4171C
S1130400F50791F72F9A0895CF93DF93CDB7DEB711
S11304102B970FB6F894DEBF0FBECDBFCFDF82DEC1
S11304207894CE0101967C01C82EDF2C00E211E005
S11304308FE39CE90197F1F700C000008C2D9D2DFE
S1130440E8DE8823A9F31A8309832B81222369F028
S1130450FE01349630E02D5F3F4F2E0D3F1D80810D
S113046080958193E217F307D1F78C2D9D2D8CDEB7
S1090470DFCFF894FFCF7A
S9030000FC
