S00D00004E6F6465322E737265635F
S1130000C2C00000DFC00000DDC00000DBC0000093
S1130010D9C00000D7C00000D5C00000D3C0000084
S1130020D1C00000CFC00000CDC00000CBC0000094
S1130030C9C00000C7C00000C5C00000C3C00000A4
S1130040C1C00000BFC00000BDC00000BBC00000B4
S1130050B9C00000B7C00000B5C00000B3C00000C4
S1130060B1C00000AFC00000ADC00000ABC00000D4
S1130070A9C00000A7C00000A5C00000A3C00000E4
S1130080A1C000009FC000009DC000009BC00000F4
S113009099C0000097C0000095C00000C6C10000D0
S11300A091C000008FC000008DC000008BC0000014
S11300B089C0000087C0000085C0000083C0000024
S11300C081C000007FC000007DC000007BC0000034
S11300D079C0000077C0000075C0000073C0000044
S11300E071C0000033028502850285028502850203
S11300F08502850233028502850285028502850216
S11301008502850235028502850285028502850203
S113011085028502850285028502850285028502A3
S113012085028502350285028502850285028502E3
S11301308502850285028502850285028502850283
S11301408502850281028502850285028502850277
S1130150850285025E02850285028502850285028A
S11301608502850285028502850285028502850253
S11301708502850252028502850285028502850276
S113018085028502700211241FBECFEFD1E2DEBFCB
S1130190CDBF00E00CBF13E0A0E0B2E0E8E1FBE07B
S11301A000E00BBF02C007900D92AA33B107D9F744
S11301B023E0AAE3B3E001C01D92A734B207E1F73C
S11301C0AED2A8C41DCF80E480937C0088E08093E5
S11301D07B0080E880937A000895CF93DF931F9289
S11301E01F92CDB7DEB7282F277030E03A832983DA
S11301F029813A81869586958870A901482BCA0180
S11302009A83898389819A810897ECF429813A81B8
S1130210EEE7F0E0408181E090E0BC0102C0660FAF
S1130220771F2A95E2F79B01242B208349815A8169
S113023020B302C0880F991F4A95E2F780959095E4
S1130240822380BB21C049815A81EDE7F0E06081BF
S11302504850510981E090E09C0102C0220F331FF5
S11302604A95E2F7262B208329813A81E7E0F1E0E1
S113027040812850310902C0880F991F2A95E2F75E
S113028080959095842380830F900F90DF91CF9178
S1130290089551D160E88FE060D160E28AE25DD1D7
S11302A062E989E25AD162EC88E257D160E08BE2DC
S11302B054D160E08CE251D160E08DE24ED160E037
S11302C08CE04BD160E08DE048D160E080E645D120
S11302D060E080E742D160E080E23FD160E081E20B
S11302E03CD160E082E239D160E083E236D164E05F
S11302F08FE033C10895E2E0F1E080818F7E808356
S11303000895CF93DF93C1E0D1E088818062888330
S1130310888188608883888180648883E2E0F1E052
S11303208081806280838081877F808380818064F4
S1130330808344D0888180618883888182608883B7
S1130340DADFDF91CF910895E2E0F1E0808180610E
S113035080830895CF93DF93CDB7DEB729970FB687
S1130360F894DEBF0FBECDBF613031F4E2E0F1E0BE
S113037090819260908305C0E2E0F1E090819D7FDE
S1130380908390E599831A828B8381E08C831D820C
S113039082E08E831F8283E08887198669E0CE011C
S11303A0019616D029960FB6F894DEBF0FBECDBFC6
S11303B0DF91CF910895819A899808958CE0809374
S11303C0B8008FEF8093BB0084E08093BC00089555
S11303D0CF93DF93EC01ECEBF0E0908190FDFDCF47
S11303E060933C03888180933D0380FD13C0623099
S11303F088F0FE013196AEE3B3E06250262F30E080
S11304002E5F3F4FCE01820F931F21912D93E8174A
S1130410F907D9F710923B0388EF8093000285EA2D
S11304208093BC00DF91CF9108951F920F920FB675
S11304300F9211240BB60F922F933F938F939F9398
S1130440AF93BF93EF93FF93E091B9008E2F90E0A9
S1130450FC013897E135F10508F057C08827EE58BC
S1130460FF4F8F4F22C310923A03E0913A038091D9
S11304703C03E81770F481E08E0F80933A03F0E0B8
S1130480E35CFC4F80818093BB0085E88093BC00D3
S113049043C080913B03816080933B0384E9809354
S11304A0BC003AC0E0913A0381E08E0F80933A0396
S11304B08091BB00F0E0E35CFC4F808320913A0321
S11304C030E080913C0390E001972817390724F429
S11304D085EC8093BC0020C085E88093BC001CC0E0
S11304E08091BB00E0913A03F0E0E35CFC4F808331
S11304F080913B03816080933B0384E98093BC003B
S11305000BC085EA8093BC0007C08091B90080933A
S1130510000284E08093BC00FF91EF91BF91AF9102
S11305209F918F913F912F910F900BBE0F900FBE13
S11305300F901F901895CF93DF931F92CDB7DEB71E
S113054080EC898341E050E060E070E0CE010196E8
S11305503CD00F90DF91CF910895CF93DF9300D0DB
S1130560CDB7DEB792E099838A836B8343E050E092
S113057060E070E0CE01019628D00F900F900F90AC
S1130580DF91CF91089580E49CE990938700809354
S11305908600269A80E29EE490938B0080938A00E2
S11305A082E2809380008AE180938100089584B17F
S11305B0876884B92398289A2F9AE4E6F0E080812A
S11305C08B7F80838DE58CBD08952F9814161506B6
S11305D094F4FC01DB01480F591F91919EBD0DB4A9
S11305E007FEFDCF6115710511F09EB59C93119620
S11305F0E417F50791F72F9A0895CF93DF931F928D
S11306001F92CDB7DEB71A82198229813A81281741
S113061039077CF425E02A95F1F7000029813A8115
S11306202F5F3F4F3A83298329813A81281739075D
S11306308CF30F900F90DF91CF9108954F925F92BA
S11306406F927F928F929F92AF92BF92CF92DF92DE
S1130650EF92FF920F931F93CF93DF934B015C01B3
S113066029013A0160E271EA87E090E0A501940172
S113067000D269017A01A5019401C301B201B5D187
S113068028EE33E040E050E0F4D1121613061406CD
S11306901506A4F529013A01D701C601C12CD12CB4
S11306A07601D82FC92F8FEF88169806A806B806AA
S11306B089F41AC061E04EDE802F912F9EDF8FEF08
S11306C0C81AD80AE80AF80A4C145D046E047F04B8
S11306D051F714C060E082E33DDE0D2F1C2F8D2FF7
S11306E09C2F8BDF82E3E6CF60E080E033DE0D2FCA
S11306F01C2F8D2F9C2F81DF80E0DCCFDF91CF91E9
S11307001F910F91FF90EF90DF90CF90BF90AF902B
S11307109F908F907F906F905F904F90089547DFE8
S1130720B8DD31DF50DD80E058DDEBDD44DE789468
S11307300BDE0F2EFDE9CF2EF2E0DF2EF02D0F2E73
S1130740F8EEEF2EF3E0FF2EF02DC1E0D2E00DE93C
S113075012E069917991C70157D14B01F801619178
S113076071918F01092C000CAA08BB08072E000CFC
S1130770880B990BA501940161DFC501B40146D032
S113078026E636E646EA5FE3A5D00DD0E69E900164
S1130790E79E300DF69E300D1124C9012EDFCC15D5
S11307A0DD05B9F6D2CF04D06894B1118DC0089597
S11307B070D088F09F5790F0B92F9927B751A0F0C7
S11307C0D1F0660F771F881F991F1AF0BA95C9F7E1
S11307D012C0B13081F077D0B1E0089574C0672FB2
S11307E0782F8827B85F39F0B93FCCF38695779591
S11307F06795B395D9F73EF490958095709561957A
S11308007F4F8F4F9F4F0895E89409C097FB3EF4A4
S113081090958095709561957F4F8F4F9F4F992349
S1130820A9F0F92F96E9BB279395F69587957795C7
S11308306795B795F111F8CFFAF4BB0F11F460FF87
S11308401BC06F5F7F4F8F4F9F4F16C0882311F0DF
S113085096E911C0772321F09EE8872F762F05C0F3
S1130860662371F096E8862F70E060E02AF09A958E
S1130870660F771F881FDAF7880F9695879597F983
S1130880089557FD9058440F551F59F05F3F71F07C
S11308904795880F97FB991F61F09F3F79F08795E3
S11308A00895121613061406551FF2CF4695F1DF6C
S11308B008C0161617061806991FF1CF86957105FC
S11308C0610508940895E894BB2766277727CB0130
S11308D097F908950BD078C069D028F06ED018F03D
S11308E0952309F05AC05FC01124EECFCADFA0F3EC
S11308F0959FD1F3950F50E0551F629FF001729FB1
S1130900BB27F00DB11D639FAA27F00DB11DAA1FCF
S1130910649F6627B00DA11D661F829F2227B00D1C
S1130920A11D621F739FB00DA11D621F839FA00DA7
S1130930611D221F749F3327A00D611D231F849FF7
S1130940600D211D822F762F6A2F11249F5750404E
S11309508AF0E1F088234AF0EE0FFF1FBB1F661FE9
S1130960771F881F91505040A9F79E3F510570F0A2
S113097014C0AACF5F3FECF3983EDCF386957795DD
S11309806795B795F795E7959F5FC1F7FE2B880F9D
S1130990911D9695879597F9089597F99F6780E833
S11309A070E060E008959FEF80EC089500240A94BD
S11309B01616170618060906089500240A94121636
S11309C01306140605060895092E0394000C11F469
S11309D0882352F0BB0F40F4BF2B11F460FF04C016
S11309E06F5F7F4F8F4F9F4F0895DB018F939F93CE
S11309F073D0BF91AF91A29F800D911DA39F900DC5
S1130A00B29F900D1124089597FB072E16F40094BD
S1130A1006D077FD08D06AD007FC05D03EF4909547
S1130A2081959F4F0895709561957F4F0895A1E238
S1130A301A2EAA1BBB1BFD010DC0AA1FBB1FEE1F54
S1130A40FF1FA217B307E407F50720F0A21BB30B9F
S1130A50E40BF50B661F771F881F991F1A9469F71B
S1130A6060957095809590959B01AC01BD01CF0177
S1130A700895052E97FB16F400940FD057FD05D06A
S1130A80D6DF07FC02D046F408C050954095309557
S1130A9021953F4F4F4F5F4F0895909580957095E6
S1130AA061957F4F8F4F9F4F0895EE0FFF1F881F53
S1130AB08BBF0790F691E02D1994A29FB001B39FCC
S1130AC0C001A39F700D811D1124911DB29F700D53
S1130AD0811D1124911D0895F0DFA59F900DB49FF1
S1130AE0900DA49F800D911D11240895AA1BBB1B7A
S1130AF051E107C0AA1FBB1FA617B70710F0A61B1A
S1130B00B70B881F991F5A95A9F780959095BC013A
S10B0B10CD010895F894FFCF14
S1130B18F80C000C000C000C000C000C000C000C71
S1130B28000C000C000C000C000C000C000C000C59
S1130B38000C000C000C000C000C000C000C000C49
S1130B48000C000C000C000C000C000C000C000C39
S1130B58000900090009000C000C000C000C000C32
S1130B68000C000C000C000C000C000C000C000C19
S1130B78000C000C000C000C000C000C000C000C09
S1130B88000C000C000C000C000C000C000C0009FC
S1130B9800090009000C000C000C000C000C000CEF
S1130BA8000C000C000C000C000C000C004D0A4D4D
S1130BB80AFFFF4D0A00002D084D0A0000400C00F2
S1130BC8000000000020060000000000002D0800BE
S1130BD8000000200600000000270500000000E0D7
S1130BE8060000B80700004907E006000020064D8B
S1130BF80A400CC00D0000EA0A400C00004D0A002F
S1130C08002D082D09B807000000002D0800000079
S1130C1800200600000000270500000000E0060090
S1130C2800B80700004907E006000020064D0A4006
S1130C380CC00D0000EA0A400C00004D0A00002D0B
S10D0C48082D09B8070000000000A1
S9030000FC
