S00D00004E6F6465322E737265635F
S113000071C000008EC000008CC000008AC00000D7
S113001088C0000086C0000084C0000082C00000C8
S113002080C000007EC000007CC000007AC00000D8
S113003078C0000076C0000074C0000072C00000E8
S113004070C000006EC000006CC000006AC00000F8
S113005068C0000066C0000064C0000062C0000008
S113006060C000005EC000005CC000005AC0000018
S113007058C0000056C0000054C0000052C0000028
S113008050C000004EC000004CC000004AC0000038
S113009048C0000046C0000044C0000042C0000048
S11300A040C000003EC000003CC000003AC0000058
S11300B038C0000036C0000034C0000032C0000068
S11300C030C000002EC000002CC000002AC0000078
S11300D028C0000026C0000024C0000022C0000088
S11300E020C0000011241FBECFEFD1E2DEBFCDBF80
S11300F000E00CBF12E0A0E0B2E0EAE5F4E000E0CA
S11301000BBF02C007900D92A030B107D9F722E0CF
S1130110A0E0B2E001C01D92A030B207E1F77FD1A8
S11301209AC16ECFC7D060E28AE2EDD062E989E27B
S1130130EAD062EC88E2E7D060E08BE2E4D060E0F1
S11301408CE2E1D060E08DE2DED060E08CE0DBD0D8
S113015060E08DE0D8D060E080E6D5D060E080E754
S1130160D2D060E080E2CFD060E081E2CCD060E029
S113017082E2C9D060E083E2C6D064E08FE0C3C00D
S11301800895CF92DF92EF92FF921F93CF93DF9364
S11301906C0163E080E3B7D0F601608171817695EC
S11301A06795769567957695679581E3ACD0F6016A
S11301B060816295660F607E82E3A5D060E083E390
S11301C0A2D060E084E39FD0F601628185E39BD0F6
S11301D0F60182818823A1F07601F3E0EF0EF11C91
S11301E016E3C0E0D0E0F70161917F01812F8BD04D
S11301F021961F5FF601828190E0C817D9079CF30E
S113020040E060E081E0AED0DF91CF911F91FF909C
S1130210EF90DF90CF900895CF92DF92EF92FF920C
S11302201F93CF93DF936C01B7D080FF3AC081E670
S113023053D028E0829FC0011124F601918380836A
S113024082E64AD0282F229526952770F6018081D0
S11302509181822B9183808385E63ED0F60182834F
S1130260893018F088E0828302C08823A1F07601E7
S1130270F3E0EF0EF11C16E6C0E0D0E0812F2CD0A5
S1130280F70181937F0121961F5FF601828190E03F
S1130290C817D9079CF340E061E08CE24AD081E0C2
S11302A001C080E0DF91CF911F91FF90EF90DF902C
S11302B0CF900895CF93DF931F92CDB7DEB780EC34
S11302C0898341E050E060E070E0CE0101968FD078
S11302D00F90DF91CF910895CF93DF9300D0CDB7E6
S11302E0DEB793E099838A831B8243E050E0BE012A
S11302F06F5F7F4FCB017BD08B810F900F900F905E
S1130300DF91CF910895CF93DF9300D0CDB7DEB7BF
S113031092E099838A836B8343E050E060E070E06D
S1130320CE01019664D00F900F900F90DF91CF9182
S11303300895CF93DF9300D01F92CDB7DEB795E039
S113034099838A836B834C8344E050E060E070E0DF
S1130350CE0101964CD00F900F900F900F90DF912B
S1130360CF910895CF93DF931F92CDB7DEB7882343
S113037011F081E801C080E861118260411184605C
S1130380898341E050E060E070E0CE0101962FD017
S11303900F90DF91CF9108951F93CF93DF9300D0F7
S11303A0CDB7DEB710EA19831A821B8243E050E00E
S11303B0BE016F5F7F4FCB011AD09A818B81981356
S11303C0F2CF892F0F900F900F90DF91CF911F9153
S11303D0089584B1876884B92398289A2F9AE4E60B
S11303E0F0E080818B7F80838DE58CBD08952F980C
S11303F01416150694F4FC01DB01480F591F919162
S11304009EBD0DB407FEFDCF6115710511F09EB5BB
S11304109C931196E417F50791F72F9A0895CF93BB
S1130420DF93CDB7DEB72B970FB6F894DEBF0FBEC0
S1130430CDBFCFDF77DE02E010E0CE010196ECDE27
S11304408823D9F31A8309838C8180958C83CE0108
S10D0450019697DEF2CFF894FFCF77
S9030000FC
