S00D00004E6F6465322E737265635F
S1130000C2C00000E0C00000DEC00000DCC0000090
S1130010DAC00000D8C00000D6C00000D4C0000080
S1130020D2C00000D0C00000CEC00000CCC0000090
S1130030CAC00000C8C00000C6C00000C4C00000A0
S1130040C2C00000C0C00000BEC00000BCC00000B0
S1130050BAC00000B8C00000B6C00000B4C00000C0
S1130060B2C00000B0C00000AEC00000ACC00000D0
S1130070AAC00000A8C00000A6C00000A4C00000E0
S1130080A2C00000A0C000009EC000009CC00000F0
S11300909AC0000098C0000096C0000008C5000087
S11300A092C0000090C000008EC000008CC0000010
S11300B08AC0000088C0000086C0000084C0000020
S11300C082C0000080C000007EC000007CC0000030
S11300D07AC0000078C0000076C0000074C0000040
S11300E072C000007505C705C705C705C705C70564
S11300F0C705C7057505C705C705C705C705C705EE
S1130100C705C7057705C705C705C705C705C705DB
S1130110C705C705C705C705C705C705C705C7057B
S1130120C705C7057705C705C705C705C705C705BB
S1130130C705C705C705C705C705C705C705C7055B
S1130140C705C705C305C705C705C705C705C7054F
S1130150C705C705A005C705C705C705C705C70562
S1130160C705C705C705C705C705C705C705C7052B
S1130170C705C7059405C705C705C705C705C7054E
S1130180C705C705B20511241FBECFEFD1E2DEBFFC
S1130190CDBF00E00CBF12E0A0E0B2E0EAE7F3E17B
S11301A000E00BBF02C007900D92A230B107D9F74F
S11301B022E0A2E0B2E001C01D92AB31B207E1F748
S11301C0F1D50C94BB091CCFECE7F0E09081907E54
S11301D090839081282F2F71922B9083EBE7F0E08E
S11301E09081977F90839081829586958770880F00
S11301F0880F880F892B8083089580E480937C0086
S113020088E080937B0080E880937A000895CF9300
S1130210DF931F921F92CDB7DEB7282F277030E0EF
S11302203A83298329813A81869586958870A90124
S1130230482BCA019A83898389819A810897ECF4AF
S113024029813A81EEE7F0E0408181E090E0BC0151
S113025002C0660F771F2A95E2F79B01242B2083A7
S113026049815A8120B302C0880F991F4A95E2F749
S113027080959095822380BB21C049815A81EDE706
S1130280F0E060814850510981E090E09C0102C097
S1130290220F331F4A95E2F7262B208329813A81C6
S11302A0E7E0F1E040812850310902C0880F991F2E
S11302B02A95E2F780959095842380830F900F9080
S11302C0DF91CF91089580DFEAE7F0E080818064D8
S11302D08083808184FFFDCF8091780090917900A4
S11302E008956BD460E88FE091D460E28AE28ED402
S11302F062E989E28BD462EC88E288D460E08BE224
S113030085D460E08CE282D460E08DE27FD460E04A
S11303108CE07CD460E08DE079D460E080E676D433
S113032060E080E773D460E080E270D460E081E252
S11303306DD460E082E26AD460E083E267D464E072
S11303408FE064C40895CF92DF92EF92FF921F93DF
S1130350CF93DF936C0163E080E358D4F6016081AE
S1130360718176956795769567957695679581E31E
S11303704DD4F60160816295660F607E82E346D4B7
S1130380F601628185E342D4F60182818823A1F0DB
S11303907601F3E0EF0EF11C16E3C0E0D0E0F701C4
S11303A061917F01812F32D421961F5FF6018281F2
S11303B090E0C817D9079CF340E060E081E055D491
S11303C0DF91CF911F91FF90EF90DF90CF90089530
S11303D0FF920F931F93CF93DF938C0160D480FF20
S11303E03BC081E6FCD328E0829FC0011124F801C0
S11303F09183808382E6F3D3F80120813181829551
S113040086958770282B3183208385E6E8D3F8010D
S113041082838281893010F088E08283F8018281AE
S11304208823A1F00F2EF6E6FF2EF02DC0E0D0E0D9
S11304308F2DD5D3F801EC0FFD1F83832196F8018E
S11304408281F39490E0C817D90794F340E061E007
S11304508CE2F2D381E001C080E0DF91CF911F9163
S11304600F91FF900895E2E0F1E080818F7E808318
S11304700895CF93DF93C1E0D1E0888180628883BF
S1130480888188608883888180648883E2E0F1E0E1
S11304908081806280838081877F80838081806483
S11304A08083CED2888180618883888182608883BA
S11304B0DADFDF91CF910895E2E0F1E0808180619D
S11304C080830895CF93DF93CDB7DEB729970FB616
S11304D0F894DEBF0FBECDBF613031F4E2E0F1E04D
S11304E090819260908305C0E2E0F1E090819D7F6D
S11304F0908390E599831A828B8381E08C831D829B
S113050082E08E831F8283E08887198669E0CE01AA
S11305100196A0D229960FB6F894DEBF0FBECDBFC8
S1130520DF91CF9108954F925F926F927F928F9255
S11305309F92AF92BF92CF92DF92EF92FF924B01C4
S11305405C0169017A0120E030E040EA50E4C7012F
S1130550B601EDD4882394F020E030E04AE753E478
S1130560C701B60133D618168CF40F2EC12CD12C2A
S1130570FAE7EF2EF3E4FF2EF02D08C00F2EC12C66
S1130580D12CF0EAEF2EF0E4FF2EF02DA50194011A
S1130590C701B60167D46B017C0120910A02309136
S11305A00B0240910C0250910D025DD42B013C01D1
S11305B060930A0270930B0280930C0290930D02D5
S11305C020910602309107024091080250910902DD
S11305D0C701B60147D42DEC3CEC4CE45DE3FAD5FD
S11305E04B015C0123E333E343E75FE360910202E1
S11305F0709103028091040290910502EBD59B0156
S1130600AC01C501B4012FD44B015C01609302021B
S11306107093030280930402909305022EED3DE64D
S11306204EED5BE3C301B201D5D52B013C012BE4B4
S113063037E349E550E4C701B601CCD59B01AC01D1
S1130640C301B20110D42B013C012FE832EC47E086
S113065052E4C501B401BED59B01AC01C301B20192
S113066002D44B015C01C0920602D0920702E092D0
S11306700802F092090220E030E0A90158D488234E
S113068024F4C501B401905802C0C501B40120E0AE
S113069030E040EA51E4E7D32B013C0120E030E0B4
S11306A048E453E493D5181644F40F2E412C512CEE
S11306B0F8E46F2EF3E47F2EF02D20E030E0A90162
S11306C0C501B40134D4881F8827881F91E0F82E0F
S11306D0F926C301B2019CD4862F6F2DF3DEFF905F
S11306E0EF90DF90CF90BF90AF909F908F907F90CE
S11306F06F905F904F900895E2E0F1E080818F7BEE
S1130700808385E38A95F1F700008081806480838B
S11307100895E2E0F1E080818F7D80838081877F8E
S113072080838AE68A95F1F700C0A6E0B1E06C9177
S11307308081886080838AE68A95F1F700C09C9165
S1130740808180628083062E000C770B762F6627CB
S1130750692B072E000C880B990B88D420E030E01D
S11307604FE753E437D520E034E447E056ECE3C3E5
S11307700F931F93CF93DF939FDE60E084E6A2DEA6
S11307802FEF33EC49E0215030404040E1F700C006
S11307900000B2DFC0E0D0E000E010E0BADF33D404
S11307A0C617D70711F40F5F1F4F2FEF39EF40E043
S11307B0215030404040E1F700C00000EB010A3016
S11307C0110564F360E080E07DDEDF91CF911F913D
S11307D00F910895819A89980895899A2FEF81EE4F
S11307E094E0215080409040E1F700C000008998D7
S11307F00895CF93DF931F921F92CDB7DEB71A826D
S1130800198229813A81281739077CF425E02A9531
S1130810F1F7000029813A812F5F3F4F3A83298302
S113082029813A81281739078CF30F900F90DF91B3
S1130830CF9108958F929F92AF92BF92CF92DF9201
S1130840EF92FF921F93CF93DF93CDB7DEB7289734
S11308500FB6F894DEBF0FBECDBF4B015C0169013A
S11308607A0160E271EA87E090E0A501940146D53F
S113087029833A834B835C83A5019401C701B601A4
S11308800CD528EE33E040E050E038D52D833E838C
S11308904F8358878D819E81AF81B88518161906BC
S11308A01A061B064CF58FEF88169806A806B8069C
S11308B011F018EC01C010E0C12CD12C76018FEF9F
S11308C088169806A806B806D9F423C061E0812FDB
S11308D0F9DD89819A81AB81BC818BDF8FEFC81AE6
S11308E0D80AE80AF80A8D819E81AF81B885C816B6
S11308F0D906EA06FB061CF361E080E0E3DD12C0E2
S113090060E088ECDFDD89819A81AB81BC8171DF95
S1130910DDCF60E080E0D6DD89819A81AB81BC8146
S113092068DFD4CF28960FB6F894DEBF0FBECDBFD4
S1130930DF91CF911F91FF90EF90DF90CF90BF9008
S1130940AF909F908F9008958F929F92AF92BF9295
S1130950CF92DF92EF92FF928130D1F030F082306B
S113096099F1833009F45AC062C028E730E040E0CE
S113097050E068EE73E080E090E05CDF28E730E070
S113098040E050E060E273E080E090E053DF4FC06D
S113099022E330E040E050E060ED77E080E090E07A
S11309A049DF22E330E040E050E068EB7BE080E0A8
S11309B090E040DF22E330E040E050E060EA7FE096
S11309C080E090E037DF33C0C12CD12C76010F2EAC
S11309D0F8E78F2E912CA12CB12CF02DA7019601B4
S11309E0C701B6015AD49B01AC01C701B60155D465
S11309F0A501940161D4CA01B90126E030E040E0C8
S1130A0050E018DF8FEFC81AD80AE80AF80A88E716
S1130A10C816D104E104F10409F709C024E130E067
S1130A2040E050E060EA7FE080E090E003DFFF9088
S1130A30EF90DF90CF90BF90AF909F908F900895EC
S1130A408CE08093B8008FEF8093BB0084E08093A8
S1130A50BC000895CF93DF93EC01ECEBF0E09081C0
S1130A6090FDFDCF6093100288818093110280FD78
S1130A7013C0623088F0FE013196A2E1B2E0625008
S1130A80262F30E02E5F3F4FCE01820F931F21911E
S1130A902D93E817F907D9F710920F0288EF809386
S1130AA0000285EA8093BC00DF91CF9108951F92E4
S1130AB00F920FB60F9211240BB60F922F933F9300
S1130AC08F939F93AF93BF93EF93FF93E091B900FC
S1130AD08E2F90E0FC013897E135F10508F057C0FE
S1130AE08827EE58FF4F8F4F25C410920E02E091D5
S1130AF00E0280911002E81770F481E08E0F80934B
S1130B000E02F0E0EF5EFD4F80818093BB0085E82C
S1130B108093BC0043C080910F02816080930F02D8
S1130B2084E98093BC003AC0E0910E0281E08E0F0C
S1130B3080930E028091BB00F0E0EF5EFD4F808356
S1130B4020910E0230E08091100290E00197281766
S1130B50390724F485EC8093BC0020C085E8809399
S1130B60BC001CC08091BB00E0910E02F0E0EF5E7F
S1130B70FD4F808380910F02816080930F0284E98E
S1130B808093BC000BC085EA8093BC0007C08091B1
S1130B90B9008093000284E08093BC00FF91EF9140
S1130BA0BF91AF919F918F913F912F910F900BBE69
S1130BB00F900FBE0F901F901895CF93DF931F9245
S1130BC0CDB7DEB780EC898341E050E060E070E0AF
S1130BD0CE010196CFD00F90DF91CF910895CF939E
S1130BE0DF9300D0CDB7DEB793E099838A831B826D
S1130BF043E050E0BE016F5F7F4FCB01BBD08B81E0
S1130C000F900F900F90DF91CF910895CF93DF93C2
S1130C1000D0CDB7DEB792E099838A836B8343E03B
S1130C2050E060E070E0CE010196A4D00F900F90E8
S1130C300F90DF91CF910895CF93DF9300D01F924F
S1130C40CDB7DEB795E099838A836B834C8344E008
S1130C5050E060E070E0CE0101968CD00F900F90D0
S1130C600F900F90DF91CF910895CF93DF931F9250
S1130C70CDB7DEB7882311F081E801C080E86111A7
S1130C80826041118460898341E050E060E070E05B
S1130C90CE0101966FD00F90DF91CF9108951F93ED
S1130CA0CF93DF9300D0CDB7DEB710EA19831A8251
S1130CB01B8243E050E0BE016F5F7F4FCB015AD0EF
S1130CC09A818B819813F2CF892F0F900F900F90F8
S1130CD0DF91CF911F91089580E49CE99093870060
S1130CE080938600269A80E29EE490938B00809302
S1130CF08A0082E2809380008AE1809381000895D3
S1130D00843823E0920738F488E097E090938B00CE
S1130D1080938A000895853328E0920738F088E6A6
S1130D2090E190938B0080938A000895880F991F17
S1130D3090938B0080938A000895282F30E0A0EBD5
S1130D40B4E000D324E630E040E050E0B5D2C9017D
S1130D508C579C4FD5CF089584B1876884B9239864
S1130D60289A2F9AE4E6F0E080818B7F80838DE5DA
S1130D708CBD08952F981416150694F4FC01DB011C
S1130D80480F591F91919EBD0DB407FEFDCF61150B
S1130D90710511F09EB59C931196E417F50791F730
S1130DA02F9A0895CF93DF93CDB7DEB72B970FB665
S1130DB0F894DEBF0FBECDBFCFDF93DA8DDF1DDA2F
S1130DC080E025DA56DB06DD789482E3B6DFD0DCFA
S1130DD093DCB12C00E211E06894AA24A1F899DC18
S1130DE06B017C016B2D70E080E090E03DD19B01B4
S1130DF0AC01C701B60197DBCE010196E9DA88237D
S1130E0051F18F81823061F018F4813031F011C0DA
S1130E10833049F0843051F00CC080E095DD1BC074
S1130E2081E092DD18C08A2D8FDD15C083E08CDD52
S1130E3012C0BD80FE808C8180DFF110CEDC1A836D
S1130E400983AB8280E03FDA8C8363DCE1D06D837D
S1130E50CE01019678DA8FE39CE90197F1F700C09F
S1130E600000BDCF5058BB27AA270ED075C166D14C
S1130E7030F06BD120F031F49F3F11F41EF45BC1CC
S1130E800EF4E095E7FB51C1E92F77D180F3BA174F
S1130E90620773078407950718F071F49EF58FC1F4
S1130EA00EF4E0950B2EBA2FA02D0B01B901900181
S1130EB00C01CA01A0011124FF27591B99F0593FC5
S1130EC050F4503E68F11A16F040A22F232F342F0D
S1130ED04427585FF3CF469537952795A795F0405B
S1130EE05395C9F77EF41F16BA0B620B730B840B70
S1130EF0BAF09150A1F0FF0FBB1F661F771F881F28
S1130F00C2F70EC0BA0F621F731F841F48F487957F
S1130F1077956795B795F7959E3F08F0B3CF93956E
S1130F20880F08F09927EE0F979587950895D9D0E3
S1130F3008F481E008950CD00FC107D140F0FED031
S1130F4030F021F45F3F19F0F0C0511139C1F3C002
S1130F5014D198F39923C9F35523B1F3951B550B79
S1130F60BB27AA2762177307840738F09F5F5F4F78
S1130F70220F331F441FAA1FA9F333D00E2E3AF0B9
S1130F80E0E830D091505040E695001CCAF729D0D3
S1130F90FE2F27D0660F771F881FBB1F2617370722
S1130FA04807AB07B0E809F0BB0B802DBF01FF2752
S1130FB093585F4F2AF09E3F510568F0B6C000C1B8
S1130FC05F3FECF3983EDCF3869577956795B7958C
S1130FD0F7959F5FC9F7880F911D9695879597F9A7
S1130FE00895E1E0660F771F881FBB1F6217730720
S1130FF08407BA0720F0621B730B840BBA0BEE1F35
S113100088F7E095089504D06894B111D9C0089583
S1131010BCD088F09F5790F0B92F9927B751A0F012
S1131020D1F0660F771F881F991F1AF0BA95C9F778
S113103012C0B13081F0C3D0B1E00895C0C0672FB1
S1131040782F8827B85F39F0B93FCCF38695779528
S11310506795B395D9F73EF4909580957095619511
S11310607F4F8F4F9F4F0895E89409C097FB3EF43C
S113107090958095709561957F4F8F4F9F4F9923E1
S1131080A9F0F92F96E9BB279395F695879577955F
S11310906795B795F111F8CFFAF4BB0F11F460FF1F
S11310A01BC06F5F7F4F8F4F9F4F16C0882311F077
S11310B096E911C0772321F09EE8872F762F05C08B
S11310C0662371F096E8862F70E060E02AF09A9526
S11310D0660F771F881FDAF7880F9695879597F91B
S11310E00895990F0008550FAA0BE0E8FEEF1616B5
S11310F01706E807F907C0F012161306E407F50708
S113110098F0621B730B840B950B39F40A2661F07B
S1131110232B242B252B21F408950A2609F4A1401E
S1131120A6958FEF811D811D089597F99F6780E82B
S113113070E060E008959FEF80EC089500240A9425
S11311401616170618060906089500240A9412169E
S11311501306140605060895092E0394000C11F4D1
S1131160882352F0BB0F40F4BF2B11F460FF04C07E
S11311706F5F7F4F8F4F9F4F089557FD9058440FD7
S1131180551F59F05F3F71F04795880F97FB991FE2
S113119061F09F3F79F0879508951216130614069F
S11311A0551FF2CF4695F1DF08C01616170618062C
S11311B0991FF1CF86957105610508940895E89407
S11311C0BB2766277727CB0197F908958ADF08F4B0
S11311D08FEF08950BD0C0CFB1DF28F0B6DF18F041
S11311E0952309F0A2CFA7CF1124EACFC6DFA0F33D
S11311F0959FD1F3950F50E0551F629FF001729FA8
S1131200BB27F00DB11D639FAA27F00DB11DAA1FC6
S1131210649F6627B00DA11D661F829F2227B00D13
S1131220A11D621F739FB00DA11D621F839FA00D9E
S1131230611D221F749F3327A00D611D231F849FEE
S1131240600D211D822F762F6A2F11249F57504045
S11312508AF0E1F088234AF0EE0FFF1FBB1F661FE0
S1131260771F881F91505040A9F79E3F510570F099
S11312705CCFA6CF5F3FECF3983EDCF38695779581
S11312806795B795F795E7959F5FC1F7FE2B880F94
S1131290911D9695879597F90895DB018F939F93F8
S11312A060D0BF91AF91A29F800D911DA39F900D1F
S11312B0B29F900D11240895A1E21A2EAA1BBB1B04
S11312C0FD010DC0AA1FBB1FEE1FFF1FA217B3070E
S11312D0E407F50720F0A21BB30BE40BF50B661F24
S11312E0771F881F991F1A9469F7609570958095E8
S11312F090959B01AC01BD01CF010895052E97FB8C
S113130016F400940FD057FD05D0D6DF07FC02D0A9
S113131046F408C050954095309521953F4F4F4F66
S11313205F4F089590958095709561957F4F8F4F8D
S11313309F4F0895EE0FFF1F881F8BBF0790F691F4
S1131340E02D1994A29FB001B39FC001A39F700D1B
S1131350811D1124911DB29F700D811D1124911DB9
S11313600895F0DFA59F900DB49F900DA49F800D6C
S10D1370911D11240895F894FFCF95
S105137AF80075
S9030000FC
