S00D00004E6F6465322E737265635F
S1130000C2C00000DFC00000DDC00000DBC0000093
S1130010D9C00000D7C00000D5C00000D3C0000084
S1130020D1C00000CFC00000CDC00000CBC0000094
S1130030C9C00000C7C00000C5C00000C3C00000A4
S1130040C1C00000BFC00000BDC00000BBC00000B4
S1130050B9C00000B7C00000B5C00000B3C00000C4
S1130060B1C00000AFC00000ADC00000ABC00000D4
S1130070A9C00000A7C00000A5C00000A3C00000E4
S1130080A1C000009FC000009DC000009BC00000F4
S113009099C0000097C0000095C00000F6C10000A0
S11300A091C000008FC000008DC000008BC0000014
S11300B089C0000087C0000085C0000083C0000024
S11300C081C000007FC000007DC000007BC0000034
S11300D079C0000077C0000075C0000073C0000044
S11300E071C000006302B502B502B502B502B502E3
S11300F0B502B5026302B502B502B502B502B50296
S1130100B502B5026502B502B502B502B502B50283
S1130110B502B502B502B502B502B502B502B50223
S1130120B502B5026502B502B502B502B502B50263
S1130130B502B502B502B502B502B502B502B50203
S1130140B502B502B102B502B502B502B502B502F7
S1130150B502B5028E02B502B502B502B502B5020A
S1130160B502B502B502B502B502B502B502B502D3
S1130170B502B5028202B502B502B502B502B502F6
S1130180B502B502A00211241FBECFEFD1E2DEBF3B
S1130190CDBF00E00CBF12E0A0E0B2E0E2E2F9E083
S11301A000E00BBF02C007900D92A230B107D9F74F
S11301B022E0A2E0B2E001C01D92AF30B207E1F745
S11301C0DFD2ADC31DCF80E480937C0088E08093B0
S11301D07B0080E880937A000895EAE7F0E080816C
S11301E080648083808184FFFDCF8091780090912A
S11301F079000895D0D160E88FE0F6D160E28AE218
S1130200F3D162E989E2F0D162EC88E2EDD160E0F9
S11302108BE2EAD160E08CE2E7D160E08DE2E4D1E8
S113022060E08CE0E1D160E08DE0DED160E080E66A
S1130230DBD160E080E7D8D160E080E2D5D160E036
S113024081E2D2D160E082E2CFD160E083E2CCD11E
S113025064E08FE0C9C10895CF92DF92EF92FF92DC
S11302601F93CF93DF936C0163E080E3BDD1F6016C
S11302706081718176956795769567957695679592
S113028081E3B2D1F60160816295660F607E82E3FC
S1130290ABD1F601628185E3A7D1F601828188237F
S11302A0A1F07601F3E0EF0EF11C16E3C0E0D0E01C
S11302B0F70161917F01812F97D121961F5FF6018C
S11302C0828190E0C817D9079CF340E060E081E0A8
S11302D0BAD1DF91CF911F91FF90EF90DF90CF9033
S11302E00895CF92DF92EF92FF921F93CF93DF9303
S11302F07C01C3D180FF32C081E65FD1F701108257
S1130300818382E65AD1F70120813181282B318300
S1130310208385E652D1F7018283893018F088E082
S1130320828302C08823A1F06701F3E0CF0ED11CC1
S113033016E6C0E0D0E0812F40D1F60181936F0131
S113034021961F5FF701828190E0C817D9079CF3BB
S113035040E061E08CE25ED181E001C080E0DF91A9
S1130360CF911F91FF90EF90DF90CF900895E2E03E
S1130370F1E080818F7E8083089550D0E1E0F1E048
S1130380808180618083808182608083F0CF089542
S1130390E2E0F1E08081806180830895CF93DF9370
S11303A0CDB7DEB729970FB6F894DEBF0FBECDBF29
S11303B0613031F4E2E0F1E090819260908305C015
S11303C0E2E0F1E090819D7F908390E599831A8229
S11303D08B8381E08C831D8282E08E831F8283E085
S11303E08887198669E0CE01019622D029960FB636
S11303F0F894DEBF0FBECDBFDF91CF910895819AEF
S113040089980895899A2FE789EA93E021508040DA
S11304109040E1F700C00000899808958CE0809333
S1130420B8008FEF8093BB0084E08093BC000895F4
S1130430CF93DF93EC01ECEBF0E0908190FDFDCFE6
S11304406093040288818093050280FD13C06230AA
S113045088F0FE013196A6E0B2E06250262F30E02B
S11304602E5F3F4FCE01820F931F21912D93E817EA
S1130470F907D9F71092030288EF8093000285EA06
S11304808093BC00DF91CF9108951F920F920FB615
S11304900F9211240BB60F922F933F938F939F9338
S11304A0AF93BF93EF93FF93E091B9008E2F90E049
S11304B0FC013897E135F10508F057C08827EE585C
S11304C0FF4F8F4F01C210920202E091020280910D
S11304D00402E81770F481E08E0F80930202F0E0CA
S11304E0EB5FFD4F80818093BB0085E88093BC0067
S11304F043C08091030281608093030284E9809366
S1130500BC003AC0E091020281E08E0F80930202A7
S11305108091BB00F0E0EB5FFD4F808320910202ED
S113052030E08091040290E001972817390724F401
S113053085EC8093BC0020C085E88093BC001CC07F
S11305408091BB00E0910202F0E0EB5FFD4F8083FD
S11305508091030281608093030284E98093BC004C
S11305600BC085EA8093BC0007C08091B9008093DA
S1130570000284E08093BC00FF91EF91BF91AF91A2
S11305809F918F913F912F910F900BBE0F900FBEB3
S11305900F901F901895CF93DF931F92CDB7DEB7BE
S11305A080EC898341E050E060E070E0CE01019688
S11305B0CFD00F90DF91CF910895CF93DF9300D0E8
S11305C0CDB7DEB793E099838A831B8243E050E082
S11305D0BE016F5F7F4FCB01BBD08B810F900F901B
S11305E00F90DF91CF910895CF93DF9300D0CDB7D3
S11305F0DEB792E099838A836B8343E050E060E046
S113060070E0CE010196A4D00F900F900F90DF916F
S1130610CF910895CF93DF9300D01F92CDB7DEB76B
S113062095E099838A836B834C8344E050E060E0D7
S113063070E0CE0101968CD00F900F900F900F9028
S1130640DF91CF910895CF93DF931F92CDB7DEB79B
S1130650882311F081E801C080E8611182604111B2
S11306608460898341E050E060E070E0CE0101964F
S11306706FD00F90DF91CF9108951F93CF93DF93A5
S113068000D0CDB7DEB710EA19831A821B8243E08B
S113069050E0BE016F5F7F4FCB015AD09A818B81AE
S11306A09813F2CF892F0F900F900F90DF91CF9175
S11306B01F91089580E49CE99093870080938600BD
S11306C0269A80E29EE490938B0080938A0082E2D3
S11306D0809380008AE1809381000895843823E028
S11306E0920738F488E097E090938B0080938A0017
S11306F00895853328E0920738F088E690E19093D6
S11307008B0080938A000895880F991F90938B0023
S113071080938A000895282F30E0A0EBB4E0DCD069
S113072024E630E040E050E0ADD0C9018C579C4F46
S1130730D5CF089584B1876884B92398289A2F9ACD
S1130740E4E6F0E080818B7F80838DE58CBD0895A5
S11307502F981416150694F4FC01DB01480F591F59
S113076091919EBD0DB407FEFDCF6115710511F089
S11307709EB59C931196E417F50791F72F9A089567
S1130780CF93DF93CDB7DEB72B970FB6F894DEBFC8
S11307900FBECDBFCFDF2EDD8DDF15DDEEDD2FDE0D
S11307A07894F6DDF12C0F2EF4E69F2EF02DAA247A
S11307B0AA94B12C0F2EF4E66F2EF02D712C412C3F
S11307C0512C812C332433946894CC24C5F8DD2433
S11307D0D3946894EE24E2F88FE39CE90197F1F74F
S11307E000C00000CE0101967CDD8823A9F32C8192
S11307F0022E000C330B2C593F4F929EC001939E46
S1130800900D1124B5012BD06536710514F0662DB9
S1130810772D8B01772314F4042D152D802F7BDF86
S11308208C81682F6095661F6627661F87FD8195FA
S1130830B5DD8E81882329F0F11004C0E3DDF32CAB
S113084001C0F82CDA82C982EB8280E2C6DC9D8387
S11308508C831F830E83CE010196FEDCBDCF97FBF4
S1130860072E16F4009406D077FD08D044D007FC78
S113087005D03EF4909581959F4F089570956195AC
S11308807F4F0895A1E21A2EAA1BBB1BFD010DC0C8
S1130890AA1FBB1FEE1FFF1FA217B307E407F5072C
S11308A020F0A21BB30BE40BF50B661F771F881F08
S11308B0991F1A9469F760957095809590959B019E
S11308C0AC01BD01CF010895EE0FFF1F881F8BBF40
S11308D00790F691E02D1994A29FB001B39FC00137
S11308E0A39F700D811D1124911DB29F700D811D58
S11308F01124911D0895AA1BBB1B51E107C0AA1F17
S1130900BB1FA617B70710F0A61BB70B881F991FAC
S11309105A95A9F780959095BC01CD010895F89456
S1050920FFCF03
S1050922F800D7
S9030000FC
